:100000000C9434000C943E000C943E000C943E0082
:100010000C943E000C943E000C943E000C943E0068
:100020000C943E000C943E000C943E000C943E0058
:100030000C943E000C943E000C943E000C943E0048
:100040000C943E000C943E000C943E000C943E0038
:100050000C943E000C943E000C943E000C943E0028
:100060000C943E000C943E0011241FBECFEFD8E04C
:10007000DEBFCDBF0E9440000C9484000C940000B1
:1000800084B18F6084B931E082E094E028E035B932
:100090004FEF53EC69E0415050406040E1F700C041
:1000A000000085B94FEF53EC69E04150504060408B
:1000B000E1F700C0000095B94FEF53EC69E0415003
:1000C00050406040E1F700C0000025B94FEF53EC0D
:1000D00069E0415050406040E1F700C0000095B930
:1000E0004FEF53EC69E0415050406040E1F700C0F1
:1000F000000085B94FEF53EC69E04150504060403B
:0C010000E1F700C00000C3CFF894FFCF6F
:00000001FF
